:020000040800F2
:1000000010040020890A0008510A0008530A000859
:10001000550A0008570A0008590A000800000000A5
:100020000000000000000000000000005B0A000863
:100030005D0A0008000000005F0A0008610A00086D
:10004000A90A0008AD0A0008B10A0008B50A0008AC
:10005000B90A0008BD0A0008C10A0008C50A00085C
:10006000C90A0008CD0A0008D10A0008D50A00080C
:10007000D90A0008DD0A0008E10A0008E50A0008BC
:10008000E90A0008ED0A0008F10A0008F50A00086C
:10009000F90A0008FD0A0008010B0008050B00081A
:1000A000090B00080D0B0008110B0008150B0008C8
:1000B000190B00081D0B0008210B0008250B000878
:1000C000290B00082D0B0008310B0008350B000828
:1000D000390B00083D0B0008410B0008450B0008D8
:1000E000490B00084D0B0008510B00082DE9F8439F
:1000F000040016D02078DFF83064C10713D570688B
:1001000000F00C00042807D0706800F00C000828EC
:1001100040D17068C1033DD53068810303D5606864
:10012000002800F058812078DFF80C94810719D559
:10013000706810F00C0F07D0706800F00C000828F1
:1001400060D17068C1035DD43068810703D522692E
:10015000012A40F040813068616920F0F80040EAEF
:10016000C1003060207801077BD5A069DFF8CC138F
:10017000002800F09D8001220A6000F009FA05467F
:10018000706A81075ED400F003FA401B0228F7D999
:10019000032023E16068B0F5803F04D1306840F46B
:1001A0008030306014E008B930680AE0B0F5A02F64
:1001B000306806D140F480203060316841F48031ED
:1001C00005E020F480303060316821F48021316016
:1001D000606858B100F0DCF9054630688103A2D4AC
:1001E00000F0D6F9401B6528F7D3D1E700F0D0F92D
:1001F00005463068810396D500F0CAF9401B652892
:10020000F7D3C5E7206970B10121C9F8001000F0EB
:10021000BFF90546306881079DD400F0B9F9401B4D
:100220000228F7D9B4E70022C9F8002000F0B0F99D
:1002300005463068810795D500F0AAF9401B0228D1
:10024000F7D9A5E7DFF8E4221068C0084FF47A7107
:10025000B0FBF1F1009100BF0098411E0028009111
:10026000F9D12078410768D5F0690025C10009D48B
:10027000F06940F08050F0610125F06900F0805095
:1002800000900098DFF8B8723868C1051DD438684E
:1002900040F48070386000F07BF980463868C10512
:1002A00013D400F075F9A0EB08006528F6D36FE7CA
:1002B000086000F06DF90546706A8107D1D500F03D
:1002C00067F9401B0228F7D962E7E068012808D0E7
:1002D00008B9306A09E00528306A06D140F0040008
:1002E0003062306A40F0010005E0400840003062B2
:1002F000306A20F00400306241F28938E06858B179
:1003000000F046F90746306A810711D400F040F941
:10031000C01B4045F7D33BE700F03AF90746306A87
:10032000810705D500F034F9C01B4045F7D32FE70E
:100330001DB1F06920F08050F061E06900284CD0D8
:10034000716801F00C01082938D002282AD100F088
:1003500047F805463068810105D500F019F9401BC2
:100360000228F7D914E7206AB0F5803F05D17168FB
:10037000A06821F40031014371607268206A616AEB
:1003800022F4741202430A437260012000F029F83B
:1003900004463068810120D400F0FAF8001B0228DE
:1003A000F7D9F5E600F01CF804463068810114D551
:1003B00000F0EEF8001B0228F7D9E9E601280AD080
:1003C0007068226A00F48031914202BF00F470101C
:1003D000616A884201D0012000E00020BDE8F2837C
:1003E0000020C9F8600000F0D3B82DE9F041040006
:1003F00088464ED0534F00F077F802D200F06FF8E5
:1004000047D12068484D810712D5400703D5696858
:1004100041F4E06169602078010703D5686840F421
:10042000605068606968A06821F0F001014369606C
:100430002178C80725D56068012802D129688A0378
:1004400003E00228296802D18A0102D421E08A0748
:100450001FD56968890840EA8100686000F098F853
:1004600006466868616800F00C00B0EB810F08D0A8
:1004700000F08EF8801B41F289318842F1D30320CD
:100480002BE0386800F00700804504D200F027F820
:1004900001D0012021E02078420705D56968E06895
:1004A00021F4E061014369602178080706D5696895
:1004B000206921F4605141EAC001696000F01AF836
:1004C0006A682149194BC2F30312895CC84018605D
:1004D0001848006800F062F80020BDE8F081396833
:1004E000C90848EAC1013960386800F00700404592
:1004F0007047000010B515490D480A6802F00C0459
:10050000082C10D113A3C2F38344D2031B5D08D57A
:100510000968584313A3C1F34041595CB0FBF1F0A3
:1005200010BD0B48584310BD001002400C000020C5
:1005300000127A000800002000004242800442427B
:100540000070004000200240780A000804100240B9
:1005500000093D0002030405060708090A0B0C0DFB
:100560000E0F101001020EE00268436802440830CA
:100570005FEAC37C44BF4B445B1E52F804CB43F894
:1005800004CB091FF9D150F8041B0029ECD17047A6
:1005900001484068704700BF0000002038B50D4D8D
:1005A0000D4B2A7804464FF47A711868B1FBF2F2C9
:1005B000B0FBF2F000F046F850B9102C08D200223F
:1005C00021464FF0FF3000F020F8AC60002032BD33
:1005D000012032BD000000200C00002009010200B3
:1005E00002D4214881547047204B02F00F021A4474
:1005F00002F8041C70471E490A6860F30A2240F2A0
:10060000FA5060F31F420A60704770B5184B1C68BF
:10061000C4F302230124C3F10705052D2EBF0F25C6
:1006200004FA05F56D1E1E1D072E34BF0023DB1EC8
:100630002940994004FA03F3BDE870405B1E1A405C
:100640001143CBE7401EB0F1807F01D301207047FA
:100650000849094A48600023F02010708B60072089
:10066000086000207047000000E400E018ED00E0A2
:100670000CED00E010E000E023ED00E02DE9F84F84
:1006800000239E46674CDFF8A081684EDFF8A0B1DA
:100690004FF00F0902460CE025682840206007E073
:1006A000C4F804C04F68FF03F6D5206805432560F1
:1006B0005B1C0D6835FA03F000F0AD80012000FAF4
:1006C00003FC0CEA05056545F2D1486858B30128DA
:1006D0001AD002281FD0032833D0112817D012288F
:1006E0001DD0544FB8421CBF534FB8421BD0534F7C
:1006F000B8421CBF524FB84215D0524FB8421CBF2F
:10070000514FB8420FD01EE0D1F80CE01BE0C86892
:1007100000F1040E17E0C86800F1080E13E0C86885
:1007200000F10C0E0FE0886810B94FF0040E0AE0DB
:1007300001284FF0080E14BFC2F814C0C2F810C050
:1007400001E04FF0000EB5F5807F03D210464FEA6E
:10075000830C04E0A3F10807101D4FEA870CD0F8C2
:1007600000A009FA0CF72AEA07070EFA0CFC4CEA7B
:10077000070CC0F800C04868C00099D5376847F03A
:10078000010737609F00306800F00100009007F01B
:100790000C0C0098980858F820A009FA0CF72AEADF
:1007A000070A5A4508BF00270ED0284FBA4208BF93
:1007B000012709D0264FBA4208BF022704D0254F8F
:1007C000BA420CBF0327042707FA0CF747EA0A0CC2
:1007D00048F820C0E8434F68D4F808C0FF024CBF77
:1007E00045EA0C0C00EA0C0CC4F808C04F68D4F8B9
:1007F0000CC0BF024CBF45EA0C0C00EA0C0CC4F85C
:100800000CC04F68D4F804C0BF034CBF45EA0C0CC1
:1008100000EA0C0C44E7BDE8F18F02B9090401615C
:100820007047000000040140080001401810024019
:1008300000080140000011100000121000002110FB
:10084000000022100000311000003210000C0140A6
:10085000001001400014014018B585B000F06CF89C
:1008600000F03AF81021002201A800F077F81848AB
:10087000184C026842F010020260016801F0100199
:100880000091009A036843F004030360016801F0DB
:10089000040100910099026842F0080202600022FF
:1008A000006800F0080000904FF4005100982046C6
:1008B000FFF7B3FF0121029103914FF40050022191
:1008C00001900491204601A9FFF7D8FEFEE7000041
:1008D000181002400010014000B58FB028210022FE
:1008E00005A800F03BF814210022684600F036F815
:1008F00010220A920220059001210C9000220991F9
:100900000D920E9205A8FFF7F1FB08B100F011F867
:10091000022101910F2000900022002102920391F8
:1009200004926846FFF761FD08B100F002F80FB0CD
:1009300000BD72B6FEE7000080B50748016841F0CF
:10094000100101600320FFF756FE0F20FFF726FE7F
:1009500000F00EF8002002BD002002404018491CA3
:100960001CBFB1F1010100F8012DF9D17047000061
:100970000D4881B0026842F001020260016801F096
:10098000010100910099426842F0805242600122C8
:10099000406800F08050009000980448016862F3BD
:1009A0001A61016001B07047181002400400014054
:1009B00010B5074979441831064C7C44163404E0DC
:1009C0000A68081D114488470146A142F8D110BDAC
:1009D00008000000180000008FFBFFFF100000005F
:1009E000B8000000000000200000000000F00DF83A
:1009F000002801D0FFF7DCFFAFF300800020AFF349
:100A00000080FFF729FF00F002F80120704700F096
:100A100001B800000746384600F002F8FBE7000086
:100A200080B5AFF30080024A11001820ABBEFBE78F
:100A3000260002000548014603B4684680F3098891
:100A4000AFF30080AFF30080FFF7D0FFA5EDF5FE18
:100A5000FEE7FEE7FEE7FEE7FEE7704770477047F8
:100A600000F000B802494A68087882184A60704766
:100A7000000000207047000000000000000000009F
:100A8000010203040607080901488047014800479E
:100A9000750A0008350A0008010000000000000087
:100AA0001000000000127A00FFF7FEBFFFF7FEBF44
:100AB000FFF7FEBFFFF7FEBFFFF7FEBFFFF7FEBF6A
:100AC000FFF7FEBFFFF7FEBFFFF7FEBFFFF7FEBF5A
:100AD000FFF7FEBFFFF7FEBFFFF7FEBFFFF7FEBF4A
:100AE000FFF7FEBFFFF7FEBFFFF7FEBFFFF7FEBF3A
:100AF000FFF7FEBFFFF7FEBFFFF7FEBFFFF7FEBF2A
:100B0000FFF7FEBFFFF7FEBFFFF7FEBFFFF7FEBF19
:100B1000FFF7FEBFFFF7FEBFFFF7FEBFFFF7FEBF09
:100B2000FFF7FEBFFFF7FEBFFFF7FEBFFFF7FEBFF9
:100B3000FFF7FEBFFFF7FEBFFFF7FEBFFFF7FEBFE9
:100B4000FFF7FEBFFFF7FEBFFFF7FEBFFFF7FEBFD9
:040B5000FFF7FEBFEE
:0400000508000A35B0
:00000001FF
