:020000040800F2
:1000000038050020B52B00087B2B00087D2B00084D
:100010007F2B0008812B0008832B000800000000C4
:10002000000000000000000000000000852B000818
:10003000872B000800000000892B00088B2B00088C
:10004000CD2B0008D12B0008D52B0008D92B000898
:10005000DD2B0008E12B0008E52B0008E92B000848
:10006000ED2B0008F12B0008F52B0008F92B0008F8
:10007000FD2B0008012C0008052C0008092C0008A5
:100080000D2C0008112C0008152C0008192C000854
:100090001D2C0008212C0008252C0008292C000804
:1000A0002D2C0008312C0008352C0008392C0008B4
:1000B0003D2C0008412C0008452C0008492C000864
:1000C0004D2C0008512C0008552C0008592C000814
:1000D0005D2C0008612C0008652C0008692C0008C4
:1000E0006D2C0008712C0008752C000840F02000D1
:1000F00070472DE9F14FB0B0924604910DF14201E5
:100100003A9A2B9199464A7000200AE01AF8011B8E
:100110000498309A90470028049000F044860D9887
:10012000401C0D909AF8000058B12528EED100200F
:10013000002100220790089109920A910B920C91DC
:1001400004E00D9800F031BE41F001011AF8010FF2
:100150002028F9D023280CD02B2804D02D2805D016
:10016000302809D00BE041F00201EFE741F0040133
:10017000ECE741F00801E9E741F01001E6E72A2841
:100180000FD1D9F8002052F8040BC9F8002000283C
:100190000F9003D540420F9041F004010AF1010A8B
:1001A00014E00F92DFF8082C0AE00F9B934205DA67
:1001B00003EB830400EB440030380F900AF1010A8E
:1001C0009AF80000A0F130030A2BEED39AF8002031
:1001D0002E2A03D04FF0FF300E9029E01AF8010FBD
:1001E0002A2809D1D9F8002052F8040BC9F80020B8
:1001F0000E900AF1010A1BE02D280CBF0AF1010A3A
:10020000002000220E92DFF8A84B0BE040B90E9BB5
:10021000A34205DA03EB830502EB4502303A0E9266
:100220000AF1010A9AF80020A2F130030A2BEDD35B
:10023000ADF840100FF67C309AF8001000F0DAFEAE
:1002400008B11AF8010B8DF842009DF842006828A9
:1002500005D19AF8001068290CD1622006E06C28BC
:1002600004BF9AF800106C2904D171208DF8420067
:100270000AF1010A12AA06921AF801BBBBF1250085
:100280002CD01C3800F09781001F022840F2938187
:10029000133800F0BA84093800F08D81801E00F018
:1002A0004F85401E00F0FC84401E022840F28381EE
:1002B000001F00F0F584401F00F0F280401E00F0A7
:1002C000A484401E00F0DA80C01E0ED0801E00F014
:1002D0009C84C01E00F0998400F03DBD01222521C0
:1002E00007928DF8481000F042BDD9F8000050F890
:1002F000044BC9F80000002C059440F0AB802B990A
:100300004878002800F0A1804FF0FF340FF6AC20B1
:1003100000F07CFE241A40F0468500F028BD012341
:100320006A4602A9304600F00DFE002840F03B85E9
:10033000641EF4D13096079C12AF74B1309E17F84A
:10034000011B0498B0470028049000F02C850D98FC
:10035000401C641E0D90F2D130960A9C3021002C76
:100360008DF800100CDD309E01236A4602A930464C
:1003700000F0E8FD002840F01685641EF4D13096A8
:10038000059F089C74B1309E17F8011B0498B04774
:100390000028049000F007850D98401C641E0D9005
:1003A000F2D130960B9C3021002C8DF800100CDD22
:1003B000309E01236A4602A9304600F0C3FD0028A2
:1003C00040F0F184641EF4D1309605980899099C98
:1003D000471874B1309E17F8011B0498B0470028E5
:1003E000049000F0E0840D98401C641E0D90F2D142
:1003F00030960C9C3021002C8DF800100CDD309EC6
:1004000001236A4602A9304600F09CFD002840F016
:10041000CA84641EF4D130969DF8400041077FF5F0
:1004200081AE2020002D8DF800007FF77BAE309C40
:1004300001236A4602A9204600F084FD002840F00E
:10044000B2846D1EF4D130946CE60FF658300590EE
:1004500000F08DBC0E9D002D04D5204600F0F6FD69
:10046000044608E02A460021204600F00BFE002842
:1004700014BF041B2C46089400F079BCD9F8001076
:1004800051F8040BC9F8001020F00002002121F0FF
:10049000FF33CDE9022312AC0594782100F04CBC67
:1004A0002B99487820B14FF0FF340FF6C8202FE782
:1004B0009DF84200622860D0682817D06A283FD093
:1004C0006C2806D0712847D074282CD07A281DD0EB
:1004D00062E0D9F8001051F8040BC9F800100028A8
:1004E00066D14FF0FF340FF6A42011E7D9F80010C1
:1004F00051F8040BC9F8001020B94FF0FF340FF683
:100500008C2005E70D99018000F031BCD9F800106E
:1005100051F8040BC9F80010002849D14FF0FF34FE
:100520000FF66820F4E6D9F8001051F8040BC9F86A
:10053000001000283CD14FF0FF340FF65020E7E6C2
:10054000D9F8001051F8040BC9F8001080B94FF029
:10055000FF340FF63820DBE6D9F8001051F8040B11
:10056000C9F8001020B94FF0FF340FF62020CFE675
:100570000D9AD317C0E90023F9E3D9F8001051F818
:10058000040BC9F8001020B94FF0FF340FF6FC102F
:10059000BEE60D990170EAE3D9F8001051F8040B9A
:1005A000C9F8001020B94FF0FF340FF6E010AFE6A5
:1005B0000D990160DBE39DF842004C2807BFD9F894
:1005C0000010CA1DD9F80000C21D22F00702C9F8A8
:1005D0000020D2E900010832C9F80020CDE902016B
:1005E000C80F02D007982D210AE0BDF8400081070E
:1005F00002D507982B2103E0C00705D507982021D5
:1006000012AA1154401C079012A807994BF020031E
:1006100000EB010CDDE90201CDE92C01612BCDF8E5
:1006200014C021AC0BD00E98002848BF062105D479
:1006300004BF4BF02000672801D101210E91DDE9B4
:1006400002014F0047EAD0777E15FF174FF0FF32C7
:10065000974208BF964210D1090341EA10510003A6
:10066000002908BF002808D0ABF1610503211A2D2D
:10067000089118D30FF6341110E0DDE902014A00A9
:10068000521512F1010F11D108030FD1ABF1610521
:1006900003211A2D08911FD30FF61811032260466B
:1006A00000F01CFD63E30FF60011F7E7DDE902013E
:1006B0006A4600F067FDCDE902014BF02000612899
:1006C00011D1059830220270811C0591BBF1610F98
:1006D0000CBF7821582102E00FF6D401DEE741700B
:1006E0000798801C0790DDE9020120F0000231F03C
:1006F000004308BF002A02D10026002542E14BF04A
:100700002008B8F1610F40F092800E99002947BF90
:1007100021200190491C0191019FDDE92C017F1CE2
:1007200000220023DDE9024500F064FD38BF85F0BA
:10073000004500988DF88420001F002F00900DF1D7
:10074000850632DD204629460022002300F06CFD9C
:100750002BD21C2200F082FD04460D4600F01CFE48
:10076000FF1F002F804609DD00F032FE02460B46D7
:100770002046294600F0F4FE04460D46F01D0721F0
:10078000B8F1000F0CDD491E5EBF08F00F0200F843
:10079000012D4FEA2818F3D502E0002200F8012DC0
:1007A000491EFAD5C61D002FCCDC0DF18500361A86
:1007B00001980DF185048642D8BF304600282FD419
:1007C000B04206DA0DF185010A5C082AA8BF0F21A4
:1007D00000DA0021024621AB134400E0401E13F86A
:1007E0000159521E8D42F9D00F2904D10DF1850116
:1007F0008B5C5B1C8B54002A04D50099091D21AC2D
:10080000401C0091411E0BD4621813783033DDB2C6
:100810003A2DA4BF5B443A3B491E02F80139F4D596
:100820000E9A002A40F1AC80411E0E91A8E000997A
:10083000DFF8002747F29750414391FBF2F2009214
:10084000DDE92C45C2F10702002A25F0004504DD50
:100850002046294600F04AFB0BE052420020DFF818
:10086000D81600F043FB02460B462046294600F00E
:10087000E9FE04460D46B8F1660F06BF009F0A3731
:1008800006270E983F18142FC8BF142730208DF864
:1008900084000DF18506002F34DD2046294600F046
:1008A000F5FF01460A4606F1080304200A26B2FBBA
:1008B000F6F606EB860EA2EB4E02303203F8012C60
:1008C0000A22B6FBF2F202EB820EA6EB4E0630369F
:1008D000401E03F8026DE9D1083F002F03F108061E
:1008E000D9DD084600F0E4FF02460B4620462946C3
:1008F00000F036FE0022DFF8443600F0E7FF044641
:100900000D46CAE70DF18500361A0DF1850404E0A5
:100910000098401E761E0090641C20783028F7D086
:10092000B8F1660F02D10098401C04E0B8F1650FE1
:100930000CBF012000200E9940188642B8BF701EDF
:1009400000281DD4B04204DA215C3429C8BF392103
:1009500000DC30210246631E9D1800E0401E15F8A1
:100960000169521E8E42F9D0392902D1A15C491C7D
:10097000A154002A04D50099491C1C46401C009132
:100980000646009D01F078F8406A0778DDF8388067
:1009900030B2002802DC01260FF21C644BF020006C
:1009A000662808BF6D1C16D0672845D128B210F103
:1009B000040F47DB404545DA9DF840006D1C0107F8
:1009C00003D430B24045D8BF804628B2B8EB000807
:1009D00048BF4FF000080FFA85FBBBF1000F00F392
:1009E000B3800898411C0891302205990A54B8F147
:1009F000000F03DC9DF84000010704D50898411C56
:100A0000089105990F5418EB0B0FB8BFC8F10005FA
:100A10002DB26842454432B20B909542B8BF2E4683
:100A2000059B089836B2099632462146184400F0D4
:100A300055FBAD1B0C95D1E0BBF1610F17D14FF009
:100A4000700B19E030B2404504DA9DF840100A07F7
:100A500058BF8046B8F1010848BF4FF00008BBF10D
:100A6000670F14BF4FF0450B4FF0650B04E0BBF16F
:100A7000410F08BF4FF0500B0898411C0891B8F186
:100A8000000F059914F8012B0A5403DC9DF840006F
:100A900001071AD50898411C0891B8F1000F059973
:100AA0000F5412DD761E30B28045B8BF4646059819
:100AB000089B32B22146184400F010FB089836B269
:100AC00030180890A8EB06000B900598089901448F
:100AD00028B2002881F800B003D42B204870891C6C
:100AE00004E02D224A700546891C6D4200202CAA84
:100AF0000AE02B460A2593FBF5F505EB8504A3EBED
:100B0000440302F8013B401C2DB2002DF1DC01280A
:100B100006DC4BF02002652A04BF302201F8012BCD
:100B200000282CAA08D1302001F8010B06E0401E55
:100B3000135C303301F8013B0028F8DC059A089873
:100B40001044091A099149E030B229B288421CDAEE
:100B50000598089B32B22146184400F0BFFA089964
:100B600036B271180891ABEB0600B8F1000F0B908C
:100B700003DC9DF84000020704D505984754099905
:100B8000491C0991CDF8308028E00598089B2AB2CD
:100B90002146184400F0A2FA0898761B5844B8F190
:100BA000000F089003DC9DF840100A0703D5411C94
:100BB000089105990F5430B28045B8BF4646059854
:100BC000089B32B204EB0B01184400F087FA089836
:100BD00036B230180890A8EB06000B909DF8400044
:100BE00000F01400102840F0C280079A08980B9972
:100BF000821809988A1882180C980F9980188842D0
:100C000080F2B580081A0A90B1E09DF8420062288F
:100C100008D068280ED06A2814D06C281FD07128FC
:100C200010D01CE0D9F8001051F8040BC9F80010DE
:100C3000C0B21AE0D9F8001051F8040BC9F800103E
:100C400080B212E0D9F80000C21D22F00702C9F8F4
:100C50000020D2E900010832C9F8002006E0D9F8E6
:100C6000001051F8040BC9F800100021CDE9020171
:100C70009DF8400002075AD5DDE90201002908BFAE
:100C8000002854D04BF02002782A50D1079812A99E
:100C900030230B54401C421C079201F800B046E080
:100CA0009DF84200622808D068280ED06A2814D027
:100CB0006C281FD0712810D01CE0D9F8001051F812
:100CC000040BC9F8001040B21AE0D9F8001051F82E
:100CD000040BC9F8001000B212E0D9F80000C21DE0
:100CE00022F00702C9F80020D2E900010832C9F851
:100CF000002006E0D9F8001051F8040BC9F80010E4
:100D0000C117CDE90201002902D507982D210AE07B
:100D1000BDF84000810702D507982B2103E0C007EA
:100D200005D50798202112AA1154401C079012A83B
:100D3000079901440591594602A800F04DF816E0C4
:100D400001200790D9F8001051F8040BC9F80010E1
:100D50008DF848000BE001202521BBF1000F079022
:100D60008DF8481003D0022107918DF849B00F9DEE
:100D700007980A992D1A08986D1A0B992D1A099837
:100D80006D1A0C992D1A9DF840006D1A41073FF518
:100D9000D2AA2020002D8DF800007FF7CCAA309E2B
:100DA0002C46FFF7BCBA4FF0FF3031B0BDE8F08FF2
:100DB000CBCCCC0C686A6C747A4C00007072696E93
:100DC00074665F733A2062616420257320617267E4
:100DD000756D656E740000002DE9FC4D0646884671
:100DE000376940466F2808BF082405D0FFF77EF911
:100DF000782814BF0A241024D6E900013C25824635
:100E00008B46B8F1640F18BFB8F1690F05D10029FE
:100E100003D5DAF1000A6BEB4B0BBBF1000F08BFF7
:100E2000BAF1000F0CD1306B50B9082C3AD196F8BA
:100E30003800010736D530223B2587F83B2031E0CA
:100E40008DF80080504659462246002300F018FED7
:100E50003032D0B26D1E3A2801950EDA7A555046DE
:100E600059462246002300F00BFE82465FEA010B42
:100E700008BFBAF1000F05D108E09DF80000121874
:100E8000513AEBE7F06879198842DBD3082C09D195
:100E900096F83800010705D5785D302802D06D1E20
:100EA00030207855C5F13C02306BB261791982422D
:100EB000F16008DA318F821A4FF6EF700140318706
:100EC0003262BDE8F38D00280ED596F8380000F0A8
:100ED0001400102808D1736B7069316A1B1A5B1AF1
:100EE0009B1A002BC8BF3362BDE8F38D2DE9D043B8
:100EF00006460F4614464FF00008DFF8449012E013
:100F0000E00707D542464B463046394600F0DEFC46
:100F100006460F464046494642464B4600F0D6FC40
:100F2000641080468946002CEAD130463946BDE837
:100F3000D0830000A08601000000F03F84D79741D5
:100F400000002440F8B505460E4617461C46002012
:100F50005CB117F8011BB068A847B06030B1F06A07
:100F6000401CF0620020641EF3D1F2BD4FF0FF3050
:100F7000F2BD00007072696E74665F733A20256E70
:100F800020646973616C6C6F776564007072696E60
:100F900074663A2062616420256E20617267756D07
:100FA000656E7400000000006E616E004E414E00E0
:100FB000696E6600494E4600300030B501688468AD
:100FC0004218416802EB5103C90703D54C4401E0C4
:100FD000491C08D19A4218BF12F9011B01D10C30EB
:100FE00030BD12F8015B002904F8015BF0D4491E02
:100FF000F7D5EFE7C9B202788A421AB11CBF10F8E0
:10100000012FF9E718BF002070472E0080B500B906
:1010100006A005490B681BB122220021984701E078
:1010200000F046FE222002BD30010020636F6E7387
:10103000747261696E742068616E646C65723A20C6
:10104000626164206D6573736167650000F101037F
:10105000810704D010F8011B820781B1FAD1026820
:10106000A2F10131914311F0803104BF50F8042FF7
:10107000F6E709BAB1FA81F100EBD100401CC01AC1
:1010800070470000C9B2830706D0521E22D310F861
:10109000013B9942F7D11FE0083A13D302F1040251
:1010A00041EA012141EA014150F8043B121F21BFEE
:1010B0004B40A3F1013C2CEA030C1CF0803FF3D021
:1010C000C9B2001F0832521E24BF10F8013B91EA3A
:1010D000030FF8D818BF0120401E704762B38B077A
:1010E00008D0521E11F8013B00F8013B00F02480AB
:1010F0008B07F6D1830740F0208000BF103A07D35A
:1011000030B4B1E83810103AA0E83810F9D230BC49
:10111000530724BFB1E80810A0E8081044BF51F8F5
:10112000043B40F8043BD20724BF31F8022B20F8DF
:10113000022B44BF0B7803707047121F17D35B005C
:1011400009D151F8043B20F8023B1B0C121F20F878
:10115000023BF6D20BE051F8043B00F8013B1B0ABE
:1011600020F8023B1B0C121F00F8013BF3D238BFE2
:10117000121D521E24BF11F8013B00F8013BF8D8A4
:101180007047000010B5144600F002F8226010BD50
:10119000C1F30A5343B14A0012F5001F28D2A3F24B
:1011A000FE32A1EB0251704750EA410C20D001F011
:1011B000004C31EA0C01B1FA81F204BFB0FA80F3BD
:1011C000D2180B3AB2F120032CBF00FA03F1914080
:1011D00041EA0C013EBFC2F1200C20FA0CF3194386
:1011E0009040524240F2FD33D21A01EB0351704756
:1011F0000022704741EA030C50EA4C0C52EA0C0CF6
:101200004FF4001C09D307D01CEB410F9CBF1CEB13
:10121000430F8B4208BF824270471CEB430FFBD841
:10122000994208BF9042704741EA030C50EA4C0CC7
:1012300052EA0C0C4FF4001C09D307D01CEB410FF1
:101240009CBF1CEB430F994208BF904270471CEBB8
:10125000410FFBD88B4208BF82427047124254D4E0
:1012600040F2FF7C1CEA11530FD0634531D09B182C
:1012700063453CBF01EB0251704701F0004141EA78
:101280000C510020AFF30080704750EA410320D09A
:1012900001F0004C91EA0C011CD0B1FA81F30B3B38
:1012A0009A420DD9D21A994051EA0C01C3F1200C8F
:1012B00020FA0CFC61449840531C40F2FF7CD7E7B5
:1012C000914041EA0C01C2F1200C20FA0CF31943C1
:1012D00090407047B0FA80F31533202BE0D3202ADA
:1012E000EED3203A203B9A4209D9D21A00FA03F1F0
:1012F00041EA0C010020531C40F2FF7CB8E700FAE1
:1013000002F141EA0C0100207047524240F2FF7C9A
:101310001CEA11530DD06345DBD0B2EB030C3CBF8C
:10132000A1EB025170470CF1010221EA035141F493
:10133000801150EA410CCCD001F0004C352A27DC5A
:1013400030B481EA0C01B2F1200309DAC2F12003C2
:10135000044601FA03F5D0402843D1409C400CE0FC
:10136000C3F12002450020FA03F418BF44F0010441
:1013700021FA03F091400C43002174F1004550F133
:10138000000051EB0C01244230BC7FF47BAF70476E
:101390006146002076E70000C1F30A5340F21E4286
:1013A000D31A0CDDCA0283F3070342EA505242F01B
:1013B0000042DA4002EBE17282EAE17070476FEAC4
:1013C000E17203F2E13008B182F0004070470000A2
:1013D00010F0004160B148BF4042B0FA80F2904046
:1013E000D21CC2F5846241EA025202EBD0214005D0
:1013F00070470000841A71EB030604D26E40001B94
:10140000B141121973414FF4001C1CEB410F34BF62
:101410007CEB430683E00C0DA4EB1356362E00F351
:101420007C80012E45EAC32341DC43EA525312BFBC
:10143000D20292025B08240545EAC12141EA5051DB
:10144000D2EBC020994125D407D1B0FA80F610FA2A
:1014500006F162D00020203608E0B1FA81F6B140F2
:10146000C6F1200220FA02F21143B0404FEAF474B0
:10147000B4EB465434F001064FEA74040AD8D6F5AA
:101480000016760D04F00044F04061FA06F2504078
:10149000F1404840C00A40EA415021F0004128BFD5
:1014A0005FEA500550F1000044EBD12135E0DB0A42
:1014B00045EAC121C90AB6F120050EDD42EA024221
:1014C000120CC5F1200603FA06F6EB4042EA0605C7
:1014D0006D42984161F100010DE062FA06F5F240BB
:1014E000554063FA06FC82EA0C02F3405A406D4212
:1014F000904161EB030111F4801F05D1641E620568
:1015000002D06D004041494121F48011430875F13A
:10151000004350F1000041EB045170BC70471CEBDC
:10152000410F15D223F0004352EA43060BD04FEA95
:101530004C0CBCEB410F04D80C0D661E342EB7DDED
:10154000EBE7801A994150EA410608BF0021E4E721
:1015500008BF1CEB430F28BF6FF00001DDE7000060
:1015600070B491EA030F4FF000457FF543AF6B4035
:10157000841A71EB030603D2001BB14112197341A7
:101580004FF4001C1CEB410F34BF7CEB430442E0E2
:101590000C0DA4EB1356352E4FDC45EAC323DB0AB2
:1015A00045EAC121C912B6F120050DDD63FA05F641
:1015B000EB4086EA0305124218BF45F00105C0184A
:1015C00051F100010CD213E062FA06F5F2405540E9
:1015D000F3415A40B340F3405A408018594107D371
:1015E00049085FEA30005FEA350528BF45F001058C
:1015F00001F58011420875F1004250F1000041EB05
:1016000004514E0016F5001F70BC38BF7047002013
:10161000090D090570471CEB410F10D252EA430631
:101620000BD0BCEB410F05D80C0DAB43661E342E1E
:10163000B6DD02E0AB438018594170BC704770BC06
:1016400070470000F0B540F2FF7581EA030C0CF022
:10165000004C15EA11541DBF15EA1357AC42AF42B6
:10166000E5E0BC41C1F31301C3F31303801A9941B0
:1016700043F4801304D2641E001849418018594174
:10168000C90241EA5051B1FBF3F603FB1611A2FB6C
:101690000675D7EBC020A94102D2761E80185941A9
:1016A000C90241EA5051B1FBF3FE03FB1E11A2FB3C
:1016B0000E75D7EBC020A94103D2AEF1010E801800
:1016C0005941890241EA9051760546EA8E2EB1FBD6
:1016D000F3F603FB1611A2FB0675D7EB8020A94198
:1016E00002D2761E80185941C90241EA50514EEA91
:1016F000060EB1FBF3F603FB1611A2FB0675D7EB42
:10170000C020A94102D2761E80185941C90241EA7F
:101710005051B1FBF3F703FB1711A2FB0735D3EBD5
:10172000C020A94167F100070CBF004247F0010744
:1017300066F3D5274FEA1E31B80814F5806412DD30
:10174000BD0775F1004250EB0E5051EB045111F5FD
:10175000801F5CBF41EA0C01F0BD4CF07F6141F09D
:10176000E0410020F0BDBD076D0840EA0E5041F495
:101770008011D4F10104B4F120060ADAC4F1200684
:101780000200E04001FA06F3E1401843B24015437D
:101790000EE0342C13DCC6F1200445EA40056D0848
:1017A00020FA06F2154321FA06F0A1400D4300216C
:1017B00075F1004250F1000051EB0C01F0BD00202A
:1017C0005FEA0C01F0BDCFB992185B41B3FA83F721
:1017D00004BFB2FA82F6BF190B3FB7F120062FBF44
:1017E00002FA06F3BB40C7F1200622FA06F638BF1C
:1017F0003343BA401CB1E419641E33E77F4231F031
:101800000041B1FA81F404BFB0FA80F6A4190B3C90
:10181000B4F120062FBF00FA06F1A140C4F1200662
:1018200020FA06F638BF3143A0403C1B1AE7AC4211
:101830001ABF05EA1357AF4212E050EA41061CBF37
:1018400052EA4306BFE750EA4107304661461CBFF3
:1018500041EA0551F0BD52EA430C08BFC143F0BD57
:1018600000204FF4001616EB410F98BF16EB430F04
:1018700008BF16EB410F24BFC14305E016EB430F31
:101880000CBF61464CEA0551F0BD0000400D40F22E
:101890001E4C40EAC120BCEB115C40F0004003D478
:1018A0008CF30701C84070476FEAE1707047000091
:1018B00050B1B0FA80F18840C91CC1F584610905B6
:1018C00001EBD021400570470146704730B540F22A
:1018D000FF7C1CEA11541DBF1CEA13556445654585
:1018E0003FE0641981EA030C6FF35F530CF0004C86
:1018F00043F48013C90241F0004141EA505EC50241
:101900001100A5FB020200284FF00000EEFB0120B1
:101910004FF00001E3FB052118BF42F0010240181F
:1019200000214941E3FB0E01A4F580640D0302D2BE
:1019300092184041494154F1010470DD450872F1AB
:10194000004250F1000051EB0451A1F5801102D486
:1019500041EA0C0130BD40F2FF7E4CEA0E510020FE
:1019600030BD0CEA1355644518BF654581EA030C88
:101970000CF0004C41D050EA410E1CBF52EA430E1D
:1019800002E06146002030BD24422C441BD15FEAB6
:10199000050EF6D0090302BF01460020AEF1140E79
:1019A000B1FA81F5AEEB050401FA05FE0C35C5F17F
:1019B000200100FA05F5C8404EEA000E6FF35F53B0
:1019C00043F480139CE733F00043B3FA83F504BF7C
:1019D000B2FA82FE75440B3D641BB5F1200E2FBF99
:1019E00002FA0EF3AB40C5F1200E22FA0EFE38BF0C
:1019F00043EA0E03AA40641C7CE750EA410E14BF80
:101A000052EA430E6FF000014FF4001515EB430F3F
:101A10008EBF194615EB410F9DE7B4D830BDD4F108
:101A20000104B4F120050FDAC4F12005520828BFE3
:101A300042F0010210FA05FE01FA05F57244E2BF18
:101A4000E0402843E1400FE0352C9ADCC5F120044A
:101A500052EA400220FA05F218BF42F0010231FAC0
:101A600005F0A1400A43002172F1004250F100004C
:101A700051EB0C0130BD00000048704758000020B9
:101A8000BBBBE1B1B2F5803F80F07E80022A1ED957
:101A90008C46B1FBF2F102FB11C31B0443EA104375
:101AA000B3FBF2FC02FB1C3380B240EA0343B3FBFE
:101AB000F2F002FB103240EA0C4000237047022A89
:101AC00005D98446B0FBF2F002FB10C270474AB160
:101AD00005D100F0010249085FEA3000704700229A
:101AE0000023704700F0E8B80B000200002100203E
:101AF0007047904271EB030CF6D3B3F5803F2FD2C1
:101B0000F0B5B3FA83F7B1FA81F4A7F10F0E3D1BDC
:101B10005340CEF1200602FA0EF2F3415340B5F1E4
:101B20000F0746D80F3C2C444140C4F12006A0408A
:101B3000F1414140B1FBF3F603FB1611A2FB064550
:101B4000001BA94102D2761E8018594180EA010289
:101B500021FA0EF362FA0EF200215A403046F0BD2F
:101B600030B4B1FBF3FC03FB1C11A2FB0C45001BC2
:101B7000A94103D2ACF1010C8018594130BC024696
:101B80000B46604600217047B2F1807F65D3F0B507
:101B9000B2FA82F7B1FA81F4C7F10F063D1B22FABF
:101BA00006F307F1110EF24120355A40B5F10F0747
:101BB000B8D94140C4F12006A040F1414140B1FBF9
:101BC000F3FC03FB1C11A2FB0C45001BA94103D233
:101BD000BCF1010C801859410F2F12D30F3FC903DC
:101BE00041EA5041B1FBF3F603FB1611A2FB064597
:101BF000D4EBC030A94102D2761E8018594146EA82
:101C0000CC3C07B34140C7F12006B840F141414008
:101C1000B1FBF3F603FB1611A2FB0645001BA9411D
:101C200002D2761E8018594180EA010221FA0EF391
:101C3000C7F1200462FA0EF20CFA07F05A402CFAAF
:101C400004F13043F0BD80EA010221FA0EF30021D5
:101C500062FA0EF260465A40F0BD8C46B1FBF2F1DA
:101C600002FB11C31B0243EA1063B3FBF2FC02FB4D
:101C70001C331B024CEA002043EA1063B3FBF2FC66
:101C800002FB1C331B024CEA002043EA1063B3FB47
:101C9000F2FC02FB1C331B024CEA002043EA1063F7
:101CA000B3FBF2FC02FB1C324CEA0020002370471D
:101CB000012000F003B800007047000080B500F07C
:101CC00007F8024A11001820ABBEFBE7260002000D
:101CD00010B500F03BF8020000230024E443106834
:101CE000A04203D011000220ABBE13605068A04296
:101CF00003D0111D0220ABBE536010BDF0B583B000
:101D0000040000F023F8A10047183D680026F643C0
:101D1000B54216D1AFF300803D68B5420FD100BF88
:101D200009A00090002C01D1002000E004200190C7
:101D30000320029069460120ABBE05003D60AFF371
:101D40000080280003B0F0BD3A747400004870476A
:101D5000D80000202DE9F843040016D02078DFF8E1
:101D60005464C10713D5706800F00C00042807D034
:101D7000706800F00C00082840D17068C1033DD5A0
:101D80003068810303D56068002800F0588120780E
:101D9000DFF83094810719D5706810F00C0F07D068
:101DA000706800F00C00082860D17068C1035DD431
:101DB0003068810703D52269012A40F040813068EC
:101DC000616920F0F80040EAC10030602078010726
:101DD0007BD5A069DFF8F013002800F09D80012278
:101DE0000A6000F009FA0546706A81075ED400F0C7
:101DF00003FA401B0228F7D9032023E16068B0F5FD
:101E0000803F04D1306840F48030306014E008B97D
:101E100030680AE0B0F5A02F306806D140F4802089
:101E20003060316841F4803105E020F4803030606A
:101E3000316821F480213160606858B100F0DCF92C
:101E4000054630688103A2D400F0D6F9401B65280E
:101E5000F7D3D1E700F0D0F905463068810396D575
:101E600000F0CAF9401B6528F7D3C5E7206970B1B7
:101E70000121C9F8001000F0BFF90546306881075C
:101E80009DD400F0B9F9401B0228F7D9B4E700222D
:101E9000C9F8002000F0B0F905463068810795D5F3
:101EA00000F0AAF9401B0228F7D9A5E7DFF80823BC
:101EB0001068C0084FF47A71B0FBF1F1009100BFD7
:101EC0000098411E00280091F9D12078410768D57B
:101ED000F0690025C10009D4F06940F08050F0613C
:101EE0000125F06900F0805000900098DFF8DC7266
:101EF0003868C1051DD4386840F48070386000F03F
:101F00007BF980463868C10513D400F075F9A0EB61
:101F100008006528F6D36FE7086000F06DF9054604
:101F2000706A8107D1D500F067F9401B0228F7D904
:101F300062E7E068012808D008B9306A09E005289E
:101F4000306A06D140F004003062306A40F001008F
:101F500005E0400840003062306A20F00400306242
:101F600041F28938E06858B100F046F90746306A16
:101F7000810711D400F040F9C01B4045F7D33BE77F
:101F800000F03AF90746306A810705D500F034F9C8
:101F9000C01B4045F7D32FE71DB1F06920F08050FA
:101FA000F061E06900284CD0716801F00C0108294B
:101FB00038D002282AD100F047F805463068810160
:101FC00005D500F019F9401B0228F7D914E7206A5B
:101FD000B0F5803F05D17168A06821F4003101435C
:101FE00071607268206A616A22F4741202430A43C3
:101FF0007260012000F029F804463068810120D485
:1020000000F0FAF8001B0228F7D9F5E600F01CF8FA
:1020100004463068810114D500F0EEF8001B022858
:10202000F7D9E9E601280AD07068226A00F4803105
:10203000914202BF00F47010616A884201D0012011
:1020400000E00020BDE8F2830020C9F8600000F045
:10205000D3B82DE9F041040088464ED05C4F00F023
:1020600077F802D200F06FF847D12068514D810710
:1020700012D5400703D5696841F4E06169602078B2
:10208000010703D5686840F4605068606968A0681B
:1020900021F0F001014369602178C80725D5606807
:1020A000012802D129688A0303E00228296802D1A5
:1020B0008A0102D421E08A071FD56968890840EAAD
:1020C0008100686000F098F806466868616800F072
:1020D0000C00B0EB810F08D000F08EF8801B41F2AD
:1020E00089318842F1D303202BE0386800F00700E3
:1020F000804504D200F027F801D0012021E02078AB
:10210000420705D56968E06821F4E0610143696030
:102110002178080706D56968206921F4605141EAF1
:10212000C001696000F01AF86A682A49224BC2F3BC
:102130000312895CC84018602148006800F062F80A
:102140000020BDE8F0813968C90848EAC10139605A
:10215000386800F0070040457047000010B51E4980
:1021600016480A6802F00C04082C10D11DA3C2F313
:102170008344D2031B5D08D5096858431DA3C1F3EE
:102180004041595CB0FBF1F010BD1448584310BDFC
:102190000948114A006813681149C3F3022206E096
:1021A00005480D4A006813680D49C3F3C222895CD3
:1021B000C8407047001002405400002000127A000E
:1021C0005000002000004242800442420070004063
:1021D00000200240A42B00080410024000093D002A
:1021E000C42B000802030405060708090A0B0C0D9E
:1021F0000E0F10100102000001484068704700BF38
:102200004800002038B50D4D0D4B2A7804464FF498
:102210007A711868B1FBF2F2B0FBF2F000F046F808
:1022200050B9102C08D2002221464FF0FF3000F0A8
:1022300020F8AC60002032BD012032BD48000020F3
:10224000540000200901020002D421488154704743
:10225000204B02F00F021A4402F8041C70471E497A
:102260000A6860F30A2240F2FA5060F31F420A60E3
:10227000704770B5184B1C68C4F302230124C3F1E6
:102280000705052D2EBF0F2504FA05F56D1E1E1D31
:10229000072E34BF0023DB1E2940994004FA03F3C4
:1022A000BDE870405B1E1A401143CBE7401EB0F101
:1022B000807F01D3012070470849094A4860002304
:1022C000F02010708B60072008600020704700002D
:1022D00000E400E018ED00E00CED00E010E000E0AC
:1022E00023ED00E038B5040001D1012032BD04F136
:1022F0003C05687808B900F00FF800F012F800F01B
:1023000021F8FFE7416100F016F86860202169704C
:102310002020A870002032BD00212970204600F046
:1023200003B9242068702068C16821F40051C1609D
:10233000204600F09BB82068C16841F40051C1609C
:10234000002070472068016921F4904101612068F4
:10235000416921F02A0170472DE9F843064606F14C
:102360003C070C46787820281546994648D10CB190
:10237000280001D1012044E03878012840D0012113
:1023800039700020786021227A70FFF735FFB5841C
:10239000F584B168B1F5805F04BF316900290EBFD3
:1023A000A04621464FF0000800223A7005460C4630
:1023B0000CE03068002C12BF14F8011B38F8021B27
:1023C000C1F308014160F08C411EF1842B46F08C72
:1023D000CDF80090002807D000228021304600F080
:1023E00012F80028E5D005E000224021304600F038
:1023F0000AF808B1032004E020207870002000E0F3
:102400000220BDE8F2832DE9F041069C05460E4608
:1024100090461F46286801683140B1420CBF012038
:102420000020404519D114F1010FF3D024B1FFF77A
:10243000E3FEC01B8442EDD22868C16821F4D0714C
:10244000C160202200F00CF805F13C002021417011
:10245000827000210170032000E00020BDE8F081BF
:1024600028684169490849004161704710B5044630
:1024700022681169E06821F4405101431161D36879
:102480001948A168034020690B43616903430B436A
:10249000D36016495369A06923F4407303438A4209
:1024A000536102D1FFF77CFE01E0FFF771FE626825
:1024B000192148439200B0FBF2F16423B1FBF3F21F
:1024C0006FF0630000FB021109013231B1FBF3F040
:1024D00000F0F00101EB0211226800F00F0040183B
:1024E000906010BD00000000F3E9FFFF00380140DC
:1024F000294881B0026842F001020260016801F0DF
:10250000010100910099426842F08052426002222B
:10251000406800F08050009000982048016862F305
:102520001A61016001B0704718B585B004461021EA
:102530000022684600F038F82168194A914228D1F3
:102540001548184C036843F480430360016801F4A4
:10255000804104910499026842F004020260022161
:10256000006800F0040004904FF40070049A00909A
:102570000191032203926946204600F01FF84FF4B0
:10258000806000210090019102912046694600F090
:1025900015F806B010BD00001810024004000140FC
:1025A00000380140000801404018491C1CBFB1F12F
:1025B000010100F8012DF9D1704700002DE9F84F15
:1025C00000239E466D4CDFF8B8816E4EDFF8B8B13F
:1025D0004FF00F0902460EE0D4F80CC000EA0C00E0
:1025E000E06007E0C4F808C04F68BF02F4D5E068B7
:1025F0000543E5605B1C0D6835FA03F000F0AF8021
:10260000012000FA03FC0CEA05056545F2D1486893
:1026100058B301281AD002281FD0032833D011281C
:1026200017D012281DD0594FB8421CBF584FB8427E
:102630001BD0584FB8421CBF574FB84215D0574F08
:10264000B8421CBF564FB8420FD01EE0D1F80CE084
:102650001BE0C86800F1040E17E0C86800F1080E1E
:1026600013E0C86800F10C0E0FE0886810B94FF055
:10267000040E0AE001284FF0080E14BFC2F814C07F
:10268000C2F810C001E04FF0000EB5F5807F03D214
:1026900010464FEA830C04E0A3F10807101D4FEA2F
:1026A000870CD0F800A009FA0CF72AEA07070EFAFF
:1026B0000CFC4CEA070CC0F800C04868C00099D573
:1026C000376847F0010737609F00306800F001006D
:1026D000009007F00C0C0098980858F820A009FA10
:1026E0000CF72AEA070A5A4508BF00270ED02D4FDB
:1026F000BA4208BF012709D02B4FBA4208BF0227B0
:1027000004D02A4FBA420CBF0327042707FA0CF75C
:1027100047EA0A0C48F820C0E8434F68FF0306D593
:10272000D4F800C045EA0C0CC4F800C002E02768E9
:10273000074027604F68D4F804C0BF034CBF45EA88
:102740000C0C00EA0C0CC4F804C04F68D4F808C0A4
:10275000FF024CBF45EA0C0C00EA0C0C42E7BDE856
:10276000F18F02B9090401617047C26801EA0203EE
:10277000914341EA034101617047000000040140B8
:10278000080001401810024000080140000011102C
:102790000000121000002110000022100000311073
:1027A00000003210000C01400010014000140140F4
:1027B00078B585B000F0BCF800F05BF801A8002106
:1027C00000220023002480E81E004248424D026897
:1027D00042F010020260016801F0100100910099BE
:1027E000026842F0040202600022006800F0040067
:1027F00000904FF4005100982846FFF7B2FF0121E6
:1028000002914FF40050022101900491039401A918
:102810002846FFF7D3FE314C314860604FF4E13178
:10282000A1600020E060206160610C21E061206215
:10283000A161201DFFF756FD08B100F057F862783E
:1028400094F800100FF2A80031A600F083F81424C9
:102850004FF400512846FFF788FF642000F08EF8FF
:10286000641EF5D1304600F075F81E4800688047B8
:10287000EDE700B58FB0282105A800F093F81421EA
:10288000684600F08FF8012109910220059010227E
:1028900000210A920C9105A8FFF75CFA08B100F03C
:1028A00025F80F20009000210191029103910491DD
:1028B0006846FFF7CEFB08B100F018F80FB000BD76
:1028C00001B54FF0FF33012269460748FFF744FD89
:1028D000009802BD181002400010014000000020C6
:1028E00000380140044400080400002072B6FEE7EE
:1028F000426F6F746C6F616465722025643A256461
:1029000020537461727465642121210A0000000063
:10291000476F6E6E61204A756D7020746F20417034
:10292000706C69636174696F6E2E2E2E0A00000050
:1029300080B50748016841F0100101600320FFF7EE
:102940008EFC0F20FFF75EFCFFF7D2FD002002BDDA
:10295000002002400EB41EB5024605A801900024D6
:10296000009401AB0121044878440C30FDF7C1FB11
:1029700003B010BC5DF810FBED01000038B5044653
:10298000FFF73AFC14F1010F054602D0044908781C
:102990000419FFF731FC401BA042FAD331BD00BF40
:1029A00048000020002200F001B8000000B500BF80
:1029B000130096469446103928BFA0E80C50FAD868
:1029C0005FEA417C28BF0CC048BF40F8042BC90710
:1029D00028BF20F8022B48BF00F8012B00BD0000E3
:1029E00080B50D4A7A4430320C4B7B442E339A42E8
:1029F00003D00B49FFF764FF02BD8DF800000122F0
:102A00006946012000F00EF8012802D19DF800006F
:102A100002BD4FF0FF3002BDE8D5FFF7E4D5FFF768
:102A20009000002080B5002802D400F003F802BD19
:102A3000002002BD80B5002901D1002002BD01287F
:102A400001D0022802D100F004F802BD00F011F814
:102A500002BD30B583B00C0015000120FFF74EF920
:102A600000900194029569460520ABBE281A03B078
:102A700030BD18B583B00300140000930191029497
:102A800069460520ABBE01221900201AAFF3008071
:102A900004B010BD30B4002512E050F8042BD30769
:102AA00044BF4A44521E091F042942F8045BFAD26B
:102AB00013468C0744BF15809B1CC90748BF1D7077
:102AC00050F8041B0029E8D130BC704710B5074905
:102AD00079441831064C7C44163404E00A68081D19
:102AE000114488470146A142F8D110BD08000000FA
:102AF00024000000A1FFFFFF54000000E0000020C0
:102B000000000000B7E4FFFF70010000D6000000E5
:102B10000000002000F00DF8002801D0FFF7D6FFDC
:102B2000AFF300800020AFF30080FFF741FE00F01C
:102B300002F80120704700F001B80000074638464F
:102B4000FFF7BCF8FBE700000548014603B4684600
:102B500080F30988AFF30080AFF30080FFF7DAFF5E
:102B6000A5EDF5FE38B504460D462846FFF738FFBB
:102B7000A84218BF0024204632BDFEE7FEE7FEE76C
:102B8000FEE7FEE770477047704700F001B80000AD
:102B900002494A68087882184A6070474800002055
:102BA0007047000000000000000000000102030464
:102BB000060708090148804701480047A12B000883
:102BC000492B00080000000001020304FFF7FEBFCC
:102BD000FFF7FEBFFFF7FEBFFFF7FEBFFFF7FEBF29
:102BE000FFF7FEBFFFF7FEBFFFF7FEBFFFF7FEBF19
:102BF000FFF7FEBFFFF7FEBFFFF7FEBFFFF7FEBF09
:102C0000FFF7FEBFFFF7FEBFFFF7FEBFFFF7FEBFF8
:102C1000FFF7FEBFFFF7FEBFFFF7FEBFFFF7FEBFE8
:102C2000FFF7FEBFFFF7FEBFFFF7FEBFFFF7FEBFD8
:102C3000FFF7FEBFFFF7FEBFFFF7FEBFFFF7FEBFC8
:102C4000FFF7FEBFFFF7FEBFFFF7FEBFFFF7FEBFB8
:102C5000FFF7FEBFFFF7FEBFFFF7FEBFFFF7FEBFA8
:102C6000FFF7FEBFFFF7FEBFFFF7FEBFFFF7FEBF98
:102C7000FFF7FEBFFFF7FEBF010001BA000001F938
:102C8000000010FC001E24F40082100008821000D6
:102C900008821000088210000882100008821000CC
:102CA0000882100008F8FF0B0A10000882100008C4
:102CB00082100008FAFF15000002040101E0000084
:102CC0002030010020E0000020E0000020FC000394
:102CD000E0000020FC0007D4000020C0000020E03D
:032CE00000F8FFFA
:0400000508002B497B
:00000001FF
