:020000040800F2
:10000000C8070020CD010008291A0008211A00089D
:10001000251A0008D50E00084D1A0008000000003F
:10002000000000000000000000000000311A00087D
:10003000D90E0008000000002D1A0008351A00082B
:10004000E7010008E7010008E7010008E7010008F0
:10005000E7010008E7010008E7010008E7010008E0
:10006000E7010008E7010008E7010008E7010008D0
:10007000E7010008E7010008E7010008E7010008C0
:10008000E7010008E7010008E7010008E7010008B0
:10009000E7010008E7010008E7010008E7010008A0
:1000A000E7010008E7010008E7010008E701000890
:1000B000E7010008E7010008E7010008E701000880
:1000C000E7010008E7010008E7010008E701000870
:1000D000E7010008E7010008E7010008E701000860
:1000E000E7010008E7010008E701000800F002F856
:1000F00000F05DF814A696E8000CB244B344DA456B
:1001000001D100F054F8BAE80F000FA696E83000CD
:10011000A5EB040504EB0607AAEB0704A7F101070A
:100120004FEA15154FEA3414A4F10104AC4201D38F
:1001300000F03DF813F0010F18BFFB1A43F0010364
:1001400000F001F8DBE718478C1A0000AC1A000039
:10015000103A24BF78C878C1FAD8520724BF30C8F3
:1001600030C144BF04680C60704700007047000055
:100170000023002400250026103A28BF78C1FBD8B0
:10018000520728BF30C148BF0B607047642900F098
:100190007D80002070471FB59DE8030000F062FCE1
:1001A00000F062F91FBD10B500F0C7F910BD00F0F6
:1001B000F7F91146FFF7EFFF01F04AFC00F0EEFB04
:1001C00003B4FFF7F0FF03BC00F0CAFD0948804705
:1001D00009480047FEE7FEE7FEE7FEE7FEE7FEE729
:1001E000FEE7FEE7FEE7FEE704480549054A064B41
:1001F00070470000391A0008ED000008C80100200F
:10020000C8070020C8030020C80300200FB4044919
:1002100010B503AA029800F0F9F810BC5DF814FBC1
:10022000740000202DE9F0410E46044600202062B3
:100230002046E168884730B3252805D0D4E901215C
:100240009047206A401CF2E7E16820460027884773
:10025000050018D0A5F14100192802D820354FF427
:1002600000673246294620462760FFF78FFF40B1DE
:10027000012804D0F61D26F007060836D8E7361DFB
:10028000D6E72846DAE7206ABDE8F0812DE9F0419B
:100290000646002410687529314616A510D0AFF324
:1002A0000080002802DA404213A507E031688A077F
:1002B00001D512A502E0490704D511A5012401E0EA
:1002C000AFF3008000210A2206F1240709E0B0FB09
:1002D000F2FCB0FBF2F302FB1C00303078541846FD
:1002E000491C0028F3D123462A463046BDE8F04198
:1002F00000F032B8000000002D0000002B000000CC
:10030000200000004FF0000200B5134694469646C8
:10031000203922BFA0E80C50A0E80C50B1F1200118
:10032000BFF4F7AF090728BFA0E80C5048BF0CC0C6
:100330005DF804EB890028BF40F8042B08BF704724
:1003400048BF20F8022B11F0804F18BF00F8012B96
:1003500070477047704770472DE9F0470D46994642
:100360009246044600F124080168880604D5E06935
:1003700021F01001216000E00120A84201DD471BAF
:1003800000E00027A1697A1902EB0900081AA061B0
:100390002078C00602D42046AFF30080002608E093
:1003A000D4E901211AF806009047206A401C761C07
:1003B00020624E45F4DB2078C0060AD52046AFF314
:1003C000008006E0D4E9012130209047206A401CDB
:1003D0002062381EA7F10107F4DC07E0D4E901210F
:1003E00018F805009047206A401C2062281EA5F1DD
:1003F0000105F3DC2046AFF300802078000602D52B
:100400000220BDE8F0870120FBE70000074B70B534
:100410000D467B4400F011F80446284600F020F811
:1004200010B14FF0FF3070BD204670BD6B1700005B
:1004300001694A1C02610878704700B58FB0CDE9A8
:1004400001310021059105497944CDE90310114698
:100450006846FFF7E7FE0FB000BD0000E5FFFFFFB5
:10046000007B00F08000704710B542485421FFF730
:1004700049FF41485421FFF745FF40485421FFF709
:1004800041FF3F493B483C4A3F4B08603D490A60B9
:100490003A491960531C0365481C10650120086522
:1004A0003B48344A39A1784400F0DAF920B9384899
:1004B00078440A3800F07BFA37482F4A35A178444F
:1004C00000F0CEF920B9344878440A3800F06FFAC9
:1004D00032482A4A2FA1784400F0C2F920B92F48A7
:1004E00078440A3800F063FA40232248DC000021F7
:1004F000224600F092F920B125487844543800F0A3
:1005000056FA1D4822464023002100F086F920B10A
:1005100021487844543800F04AFA184822461023FB
:10052000002100F07AF9002806D01C487844BDE884
:100530001040563800F03BBA10BD104870B5006D41
:1005400020F001040B4800F003FA0B4800F000FA19
:100550000A4800F0FDF909E0206D20F00105204671
:1005600000F0F6F9204600F040F82C46002CF3D1BC
:1005700070BD00002000002074000020C800002092
:10058000000000200400002008000020720000008D
:10059000F216000077000000DE160000CA16000008
:1005A000754600F03FFAAE4605006946534620F016
:1005B0000700854618B020B5FFF716FEBDE82040BD
:1005C0004FF000064FF000074FF000084FF0000B0F
:1005D000AC46ACE8C009ACE8C009ACE8C009ACE87E
:1005E000C00921F007018D46704770B50446051F0C
:1005F00000F01CFA0068002C14BF446870BD002C89
:1006000018BFAC423CBF20466468F8D301680A18A2
:10061000AA4218BF456003D12A680546114401600B
:1006200028684119A1421CBF6C6070BD6168696097
:1006300021680844286070BD2DE9F05F0546174623
:100640000C46C86820F4201040F48000C860800682
:1006500002D5084600F043FBE06841F282014FF00A
:10066000FF3A0140022903D0204600F0D5FAB9E054
:1006700000F42041B1F5004F0FD1C00306D56168E9
:10068000E06A884200D80846606006E02069E062BF
:100690006060606900F0BFF9A061A0680022EEB25E
:1006A00000280DDAE1688B050AD4C043A06041F44C
:1006B00090302260E0606068411C61600670AAE0D2
:1006C000E0689146226040F40050E060206978BB09
:1006D000606900F092F904F124054FF00108A8B117
:1006E000A08910F4407F08D0E06900F0EAF92061A9
:1006F00018B1E06840F4006017E0C4F81C80256180
:10070000E06820F4407040F480600EE0E06900F0A2
:10071000D8F900282061F0D0E06840F4006010F4BF
:10072000407FE06002D140F48070E060206960604A
:10073000E06825696FF0010BC1051ED56168E06AAC
:10074000884200D80846411B04D02246284600F0C3
:100750006DFAE8BB1FB1E562C4E9015959E0681CB4
:10076000E0626060E069401EA060E06840F48030B4
:10077000E06030462E70BDE8F09F17B100F4803283
:100780000AE06068411C61600670E0680A2E40F46F
:100790008030E06006D00022E16A6068814203D9BF
:1007A0000B4602E00122F7E70346B4F80CC05B1BDE
:1007B0005FEA4C5C04D4D4F81CC09C4500DD02B355
:1007C000814200D80146002BA1EB0008E56200E061
:1007D00008E0C4E9015907DD22461946284600F021
:1007E00025FA08B15046C6E7B8F1000F09D0A16953
:1007F000E5626560A1EB0800A061E06840F01000D0
:10080000E06047B16168A069E562491B0844656022
:10081000A0615846AFE73046ADE770B5C468A5079C
:1008200013D0650211D4B2F5807F09D0B2F5007FF4
:1008300006D0B2F5806F08D1012300F1240106E053
:100840005D1E6FF07F46B54201D3012070BD01618E
:10085000C361416024F470611143C160002070BD28
:100860002DE9F0410C461646070047D0104600F02F
:100870006FF82078611C61280AD0722802D077288E
:100880003CD102E00125002405E00225042402E019
:10089000082448F2020511F8010B2B2806D0622823
:1008A00009D011F8010C74280AD00BE045F00305BB
:1008B00044F00204EFE745F0040544F00104EAE7E0
:1008C00044F010043846214600F078F8411C15D059
:1008D0000021316171604FF40071F560F161706168
:1008E000200704D530460222002100F019F9306DAE
:1008F00040F0010030653046BDE8F0810020FBE7A4
:100900002DE9F0410D460646104C206DC10704D07C
:10091000410804D020F00104F7E722460EE05420FD
:1009200000F0CFF807000ED0206D47F0010108431A
:10093000542120653846FFF7E5FC3A462946304603
:10094000BDE8F0418CE70020D6E700002000002041
:100950002DE9F04704464FF0FF380026C568D4E97A
:100960000497A80718D0204600F096F9384600F002
:100970002FF8002800DA4646280502D54846FFF73A
:1009800034FE4C212046FFF7BDFC206D20F0010015
:1009900020653046BDE8F0874046FBE710B50446C9
:1009A000AFF300802046BDE81040FFF709BC10B54A
:1009B00000F0BCF9BDE8104000F0B2B90EB5CDE9C9
:1009C000000100F035FA029069460120ABBE0EBD71
:1009D00008B5694600900220ABBE08BD1FB58DE882
:1009E000070069460520ABBE04B010BD1FB58DE8F9
:1009F0000F0069460620ABBEF6E708B569460090D1
:100A00000920ABBE08BD1CB5CDE9000169460A202E
:100A1000ABBE1CBD704708B5694600900C20ABBE4C
:100A200008BD0000004870471C01002000487047C6
:100A300024010020704770477047704738B504465E
:100A40000A4600206946AFF30080002808BF38BD81
:100A500002460099204600F090F9012038BD01209F
:100A600000F0DFB9F8B5AFF30080054600200C4672
:100A70000C2000BF0646A819A0420DD9324669468F
:100A80000020AFF30080070008BF00F0CAF900980B
:100A9000A04218BF0546C419FFF7C8FF0560074606
:100AA000F01D20F007004619284600F060F9B44216
:100AB00008BFF8BDA21B31463868BDE8F84000F019
:100AC0005CB970B50646FFF7B1FF056806F10B008B
:100AD00020F00704B4429CBF002070BD2B466A681A
:100AE000BAB11068A04210D304F1080188423CBF9B
:100AF0005068586007D35168101941601168091B8C
:100B0000016058601460101D70BD13465268002AC1
:100B1000E7D121462846FFF791FF0028DED170BDBE
:100B20002DE9F041044616460D464769007B8007D3
:100B30002ED03846FFF761FF50BB3EB3012E02D0E6
:100B4000022E25D104E0204600F031F905441DE0D5
:100B50003846FFF760FFE168002841F01001E160CE
:100B600005DA204600F058F80120BDE8F081C903FD
:100B70000BD56268E16A914200D81146A26911441E
:100B80002269891A814200DD08460544002D01DAF8
:100B90000220EAE7E16A6068E268814206D29103D6
:100BA000E06203D522F4003141F01002A66900276B
:100BB000AE4213DCE16A814201D90B4600E00346F4
:100BC00003EB060C2369ACEB030CAC4506DD81425C
:100BD00001D98C4600E084469C4505D1A76027607A
:100BE00042F02000A5620DE0AD1BE669AE1B81421C
:100BF000A66000D90846C01A281A206058196060FB
:100C000022F0200003490840E060002084F848708A
:100C1000ABE70000BFCFD7FFC16821F4001141F05E
:100C20008001C16000218160016070472DE9F74FAC
:100C300015460C464FF0FF3B3848D768D2F814A051
:100C4000074209D05046A969FFF7DDFE002819DBED
:100C50003248C0430740EF604FF000496FF0004852
:100C60004C4501D3464600E0264600993B46504697
:100C70003246FFF7B3FEA96920F00042B21A1144D0
:100C8000A96128B12846FFF7C7FF5846BDE8FE8F87
:100C9000A41BE5D10020F9E770B504460569C06AD8
:100CA0006168884200D80846E16821F42011E160BB
:100CB000C90312D5A84208D02246411B2846FFF797
:100CC000B5FF10B14FF0FF3070BD0020E562C4E900
:100CD0000150E06820F48030E060002070BD10B565
:100CE0000446C06820F02000E060A16AA069884244
:100CF0000DD02046FFF7D0FFE06820F4405040F0D0
:100D00001000E060A06AA0612069E062606044F2C7
:100D10004001E0688843E06010BD00001000020060
:100D2000002801D000F01CB87047000010B5014643
:100D300002A000F05DF8012010BD000053494752A9
:100D4000545245443A2052656469726563743A208E
:100D500063616E2774206F70656E3A20000000009A
:100D600001491820ABBEFEE72600020070470021B3
:100D70000160416070470C207047034640688C4614
:100D8000002818BF88423CBF03464068F8D3186863
:100D90001844884207D00CF1030020F00700001D22
:100DA000411A521A0146081D0A60FFF71EBC10B511
:100DB0000146C268900703D0900607D5886A0AE00A
:100DC00000F05CF801210160881E10BD8B69486845
:100DD00018440B69C01A91F848301BB191F84910BA
:100DE000401A10BD1103FCD50028FADD401E10BDCD
:100DF00070B505460C460A2000E06D1C00F037F87F
:100E000035B128780028F8D102E0641C00F02FF8F2
:100E100014B120780028F8D1BDE870400A2000F015
:100E200026B810B500F02EF8BDE81040FFF778BFE7
:100E300010B5431C02E010F8011B71B18107FAD113
:100E40004FF0013202C88C1A8C4314EAC211F9D057
:100E5000C01A0A0603D0C01E10BDC01A10BD0A0475
:100E600001D0801E10BD0902FCD0401E10BD08B587
:100E700069468DF800000320ABBE08BD00487047EE
:100E80001C01002010B5012805D0002103A0FFF7A8
:100E9000AFFF012010BD09A1F8E7000053494752F8
:100EA000544D454D3A204F7574206F66206865613A
:100EB00070206D656D6F7279000000003A20486502
:100EC0006170206D656D6F727920636F72727570DD
:100ED00074656400FEE7000070470000B0B504468A
:100EE00000F028F9054640F20C00C2F2000000783C
:100EF000611C18BF044400BF00F01CF9401BA04255
:100F0000FAD3B0BD2DE9F04F82B00E68002E00F08C
:100F1000FF8040F20C4C40F2004E41F20042C4F21D
:100F2000010CC4F2010EC4F20102042700240123C3
:100F30004FF0000A4FF00009904208BF03270097C6
:100F400049E000BF41F20002C4F20102009F90425A
:100F500008BF022704F00C030F229A402BEA02027A
:100F600007FA03F34FEA9A051A4346F825204E681C
:100F7000F203DEF8002054BF22EA080242EA080227
:100F8000CEF80020DEF80420B30354BF22EA0802A2
:100F900042EA0802CEF80420F302DEF8082054BF2B
:100FA00022EA080242EA0802B302CEF80820DCF87E
:100FB00000204FF0010354BF22EA080242EA08026F
:100FC000CCF800200E680AF1010A36FA0AF204F1A0
:100FD000040400F09D8003FA0AFB16EA0B08F1D026
:100FE0004E684FF6FF72C1F21002964212DC122ECA
:100FF00056D8DFE806F0350B4D4955555555555532
:101000005555555555555545510000BFD1F80C90D3
:1010100046E000BF4FF6FF72C1F2210296420FDC9C
:101020000022C1F2110296421AD00022C1F212022D
:10103000964215D00022C1F22102964210D02FE034
:101040000022C1F2220296420AD00022C1F23102ED
:10105000964205D00022C1F23202964220D100BF52
:101060008A684AB1012A14BFC0F814B0C0F810B0A1
:101070004FF0080914E000BF4FF0040910E000BF72
:10108000CA6802F104090BE04FF0000908E000BF54
:10109000CA6802F1080903E0CA6802F10C0900BF3E
:1010A00002462646B8F5807F24BF0432203E1768EA
:1010B0000F25B54027EA050509FA06F63543156000
:1010C000CA79D2067FF57EAF41F21803C4F202035B
:1010D0001A68AEF57E7642F001021A601A6802F0D4
:1010E00001020192019A2AF0030256F802B040F67A
:1010F0000002C4F20102904208D040F60042C4F25D
:10110000010290427FF41EAF012723E7002721E769
:1011100002B0BDE8F08F0000C26802EA010391430B
:1011200041EA034101617047002A08BF09040161D7
:101130007047000040F2C010C2F200000068704723
:1011400040F20C0040F2C011C2F20000C2F20001F5
:1011500000780A68104408607047000080B542F2C9
:101160000000C4F20200016841F010010160032098
:1011700000F07AF80F2000F005F800F027F80020C2
:1011800080BD000070B540F20C06C2F2000640F2CD
:1011900018013278C2F200014FF47A730968B3FB88
:1011A000F2F20446B1FBF2F1084600F073FB0F2C9B
:1011B0004FF0010508D838B94FF0FF302146002222
:1011C000002500F025F87460284670BD82B041F219
:1011D0001800C4F202000168022241F0010101601E
:1011E000016801F0010101910199416841F08051CC
:1011F0004160406800F08050009000980420C4F2E4
:101200000100016862F31A61016002B070470000DA
:1012100010B54EF60C5CCEF2000CDCF80030C3F3D7
:10122000022E8EF00704042C28BF0424BEF1030311
:101230004FF0FF3E0EFA04F438BF0023A14399405B
:101240000EFA03F39A43114300F00F0200F16043DA
:101250000901043A03F564436244002848BF02F1DF
:101260000C03197010BD00004EF60C51CEF20001B7
:101270000A684FF6FF031A4060F30A2242F08060CA
:1012800040F0FD7008607047002804BF01207047DF
:101290002DE9F04381B042F20008C4F2020804468E
:1012A000D8F800000D4600F0070081420CD9D8F8AC
:1012B000000020F007002843C8F80000D8F800001C
:1012C00000F00700A8426CD1206841F204098107B0
:1012D000C4F2020917D5410705D5D9F8001041F429
:1012E000E061C9F80010010705D5D9F8001041F4F4
:1012F0006051C9F80010D9F80010A26821F0F0017F
:101300001143C9F80010C00742D1D8F8000000F01E
:10131000070085420CD2D8F8000020F007002843CF
:10132000C8F80000D8F8000000F00700A84238D143
:101330002068410707D5D9F80010E26821F4E06180
:101340001143C9F80010000708D5D9F80000216939
:1013500020F4605040EAC100C9F80000D9F800202C
:1013600002F00C00082841F20020C0F27A004DD1B2
:1013700041F6C233C2F38341C0F60003595CD20385
:1013800038D440F60010C0F23D0048433EE000BFB4
:10139000606859F8041C022808D0012826D1890366
:1013A00006D4012001B0BDE8F08300BF8901F8D563
:1013B000D9F8001021F003010843C9F80000FFF735
:1013C000B9FE064641F28837D9F80000616800F09E
:1013D0000C00B0EB810F98D0FFF7ACFE801BB84239
:1013E000F2D9032001B0BDE8F08300BF8907D8D54A
:1013F000DEE700BFD9F8002041F6A833C2F340422F
:10140000C0F600039A5C4843B0FBF2F0D9F8001034
:1014100041F6AA32C1F30311C0F60002515C40F25A
:10142000180220FA01F140F21000C2F20000006838
:10143000C2F200021160FFF7A5FE002001B0BDE876
:10144000F083000040F2180041F20401C2F20000F3
:10145000C4F202010068096841F6BA32C1F3022100
:10146000C0F60002515CC8407047000040F218000E
:1014700041F20401C2F20000C4F2020100680968EE
:1014800041F6BA32C1F3C221C0F60002515CC84035
:1014900070470000002804BF012070472DE9F0418B
:1014A00082B00446007841F20006C007C4F202068A
:1014B0000CD0706800F00C00042840F08180306887
:1014C000800303D56068002800F0468120788007FB
:1014D0001BD5706810F00C0F09D0706800F00C007C
:1014E000082840F087807068C00300F1838030686E
:1014F000800703D52069012840F02E81306861699A
:1015000020F0F80040EAC10030602078000713D4D2
:10151000207840072CD4E569002D00F01881706810
:1015200000F00C00082840F0A780012D40F0048155
:10153000012002B0BDE8F081A069002800F084809D
:101540000020C4F242200121C0F88014FFF7F2FD10
:10155000054600BF706A800700F1B280FFF7EAFD20
:10156000401B0228F6D9032002B0BDE8F08100BF7D
:10157000F0695FEAC00808D4F06940F08050F0617B
:10158000F06900F080500090009847F20007C4F224
:1015900000073868C00549D4386840F48070386066
:1015A000FFF7C8FD054600BF3868C0053ED4FFF709
:1015B000C1FD401B6428F7D9032002B0BDE8F081CB
:1015C000706800F00C00082803D17068C0033FF574
:1015D00076AF61683068002900F00C81B1F5A02F6A
:1015E00000F00081B1F5803F40F01A8140F4803076
:1015F0001CE100BF2069002840F20000C4F2422034
:1016000000F0888001210160FFF794FD054600BFCE
:10161000306880073FF572AFFFF78CFD401B022852
:10162000F6D9032002B0BDE8F08100BFE168306A5E
:10163000002900F09D80052900F09280012940F0EA
:10164000AF8040F00100B1E00020C4F24220002150
:10165000C0F88014FFF76EFD054600BF706A800772
:101660007FF556AFFFF766FD401B0228F6D9032031
:1016700002B0BDE8F08100BF0027C4F2422700207D
:101680003866FFF757FD022D05460DD13068800101
:1016900040F1DE80FFF74EFD401B02284FF00300B3
:1016A000F4D902B0BDE8F081306880014FD5FFF772
:1016B00041FD401B02284FF00300F5D9F1E700BFC0
:1016C00040F21800C2F20000006844F6D351C1F2A3
:1016D0006201A0FB0101480A019000BF00BF019810
:1016E000411E002801913FF413AF00BF0198411E35
:1016F000002801913FF40CAF00BF0198411E002863
:1017000001913FF405AF00BF0198411E00280191EF
:10171000E4D1FDE600210160FFF70CFD054600BFA6
:10172000306880077FF5F1AEFFF704FD401B02280B
:101730004FF00300F4D9B4E77068216A00F48032F6
:101740008A4209D1616A00F47010884204D10020F5
:1017500002B0BDE8F08100BF012002B0BDE8F08119
:1017600040F004003062306A40F001001EE000BF2B
:1017700020F001003062306A20F004003062FFF790
:10178000D9FC054641F28837306A800720D5FFF73B
:10179000D1FC401BB8424FF00300F5D981E700BFF0
:1017A00020F001003062306A20F004003062FFF760
:1017B000C1FC054641F28837306A800708D4FFF73C
:1017C000B9FC401BB842F7D9032002B0BDE8F08154
:1017D000B8F1000F3FF59FAEF06920F08050F06146
:1017E00099E600BF40F480203060306840F48030DB
:1017F0001CE000BF20F480303060306820F480208E
:101800003060FFF797FC0546306880037FF55EAED9
:10181000FFF790FC401B64284FF00300F4D940E729
:1018200020F480303060306820F480203060FFF792
:1018300081FC0546306880033FF548AEFFF77AFC2F
:10184000401B6428F6D9032002B0BDE8F08100BF38
:10185000206AB0F5803F05D17168A26821F400319B
:10186000114371607168626A21F474111143084375
:10187000706001203866FFF75DFC04463068800127
:101880003FF565AFFFF756FC001B02284FF0030041
:10189000F4D906E7411E0020B0EB116F1CBF0120F8
:1018A00070474EF21002CEF2000251604EF6235104
:1018B000CEF20001F0230B70072190601160704799
:1018C000002804BF0120704710B5044690F83D0081
:1018D00028B9002084F83C00204600F061F824205C
:1018E00084F83D002068D4E90212C36823F4005351
:1018F000C360036923F440531A430261D4E904230B
:101900001143C268194341F20C639A431143C16009
:101910004169A26921F44071114343F60002C4F207
:1019200001029042416103D0FFF78CFD02E000BF4D
:10193000FFF79CFDD4E90023192148439900B0FB2F
:10194000F1F048F21F5CC5F2EB1CA0FB0C314FF626
:101950009C734909C0F6FF7301FB0300322303EBBC
:101960000010A0FB0C03F02000EA531000EB011064
:10197000C3F34311084490601069202120F4904083
:101980001061506920F02A005061D06840F4005086
:10199000D0600020206484F83D1084F83E1010BD13
:1019A00070B586B040F60004C4F20104006804F586
:1019B0004051002688420596CDE90366029601D083
:1019C00006B070BD41F21800C4F20200016802AD19
:1019D00041F480410160016801F480410191019965
:1019E000016841F0040101600068294600F004002C
:1019F000019001984FF400700290022003900320A0
:101A000005902046FFF77EFA4FF48060CDE902068C
:101A1000204629460496FFF775FA06B070BD00000F
:101A2000FEE70000FEE70000FEE700007047000050
:101A300070470000FFF784BB4EF6085044F20041A7
:101A4000CEF20000C0F6000101607047FEE7000022
:101A500090B0FFF783FB06AC201D2421FEF752FC5B
:101A60000220069001200A9010200B9000252046AD
:101A70000D95FFF70FFD28B1EFF3108072B600BF90
:101A8000FEE700BF0F20CDE9010501A80021CDE947
:101A900003550595FFF7F8FB20B1EFF3108072B600
:101AA000FEE700BF002541F21800CDE90855CDE959
:101AB0000655C4F20200016841F2000441F0100131
:101AC00001600168C4F2010401F010010191019963
:101AD0000168002241F00401016000684FF40051E8
:101AE00000F004000190019820464FF40056FFF7E3
:101AF0001BFB0120CDE907050220099006A920461D
:101B00000696FFF7FFF940F27C1004F52051C2F26F
:101B100000000C234FF4E13280E82600C0E90355B1
:101B2000C0E90535C561FFF7CBFE28B1EFF31080A2
:101B300072B600BFFEE700BF40F21400C2F2000020
:101B40000178427806A0FEF761FB00BF20464FF403
:101B50000051FFF7E1FA4FF47A70FFF7BFF9F5E7AC
:101B60004170706C69636174696F6E2025643A25F9
:101B70006420537461727465642121210A0000009D
:101B80008A68002A02DC0022FEF756BD521E8A60D7
:101B90004A68C0B2531C4B60107070473A747400AE
:101BA0003A7474003A7474000102000000000000EE
:101BB00000000102030406070809000000000102FA
:101BC000030402030405060708090A0B0C0D0E0F97
:101BD00010100000F81B000800000020200000008A
:101BE00050010008181C000820000020A807000071
:101BF000700100080000000000000000000000006C
:101C000000000000010000001000000001000000C2
:081C10000024F40000000000B4
:04000005080000ED02
:00000001FF
